:020000040000fa
:080000000001040000000000f3
:020000040000fa
:040008001a020000d8
:020000040000fa
:04000c001a020000d4
:020000040000fa
:040010001a020000d0
:020000040000fa
:040014001a020000cc
:020000040000fa
:040018001a020000c8
:020000040000fa
:04001c001a020000c4
:020000040000fa
:040020001a020000c0
:020000040000fa
:040024001a020000bc
:020000040000fa
:040028001a020000b8
:020000040000fa
:04002c001a020000b4
:020000040000fa
:040030001a020000b0
:020000040000fa
:04003400c8010000ff
:020000040000fa
:040038001a020000a8
:020000040000fa
:04003c001a020000a4
:020000040000fa
:040040001a020000a0
:020000040000fa
:040044001a0200009c
:020000040000fa
:040048001a02000098
:020000040000fa
:04004c001a02000094
:020000040000fa
:040050001a02000090
:020000040000fa
:040054001a0200008c
:020000040000fa
:040058001a02000088
:020000040000fa
:04005c001a02000084
:020000040000fa
:040060001a02000080
:020000040000fa
:040064001a0200007c
:020000040000fa
:040068001a02000078
:020000040000fa
:04006c001a02000074
:020000040000fa
:040070001a02000070
:020000040000fa
:040074001a0200006c
:020000040000fa
:040078001a02000068
:020000040000fa
:04007c001a02000064
:020000040000fa
:040080001a02000060
:020000040000fa
:040084001a0200005c
:020000040000fa
:040088001a02000058
:020000040000fa
:04008c001a02000054
:020000040000fa
:040090001a02000050
:020000040000fa
:040094001a0200004c
:020000040000fa
:040098001a02000048
:020000040000fa
:04009c001a02000044
:020000040000fa
:0400a0001a02000040
:020000040000fa
:0400a4001a0200003c
:020000040000fa
:0400a8001a02000038
:020000040000fa
:0400ac001a02000034
:020000040000fa
:0400b0001a02000030
:020000040000fa
:0400b4001a0200002c
:020000040000fa
:0400b8001a02000028
:020000040000fa
:0400bc001a02000024
:020000040000fa
:0400c0001a02000020
:020000040000fa
:0400c4001a0200001c
:020000040000fa
:0400c8001a02000018
:020000040000fa
:0400cc001a02000014
:020000040000fa
:0400d0001a02000010
:020000040000fa
:0400d4001a0200000c
:020000040000fa
:0400d8001a02000008
:020000040000fa
:040108001a020000d7
:020000040000fa
:04010c001a020000d3
:020000040000fa
:040110001a020000cf
:020000040000fa
:040114001a020000cb
:020000040000fa
:040118001a020000c7
:020000040000fa
:04011c001a020000c3
:020000040000fa
:040120001a020000bf
:020000040000fa
:040124001a020000bb
:020000040000fa
:040128001a020000b7
:020000040000fa
:04012c001a020000b3
:020000040000fa
:040130001a020000af
:020000040000fa
:04013400c8010000fe
:020000040000fa
:040138001a020000a7
:020000040000fa
:04013c001a020000a3
:020000040000fa
:040140001a0200009f
:020000040000fa
:040144001a0200009b
:020000040000fa
:040148001a02000097
:020000040000fa
:04014c001a02000093
:020000040000fa
:040150001a0200008f
:020000040000fa
:040154001a0200008b
:020000040000fa
:040158001a02000087
:020000040000fa
:04015c001a02000083
:020000040000fa
:040160001a0200007f
:020000040000fa
:040164001a0200007b
:020000040000fa
:040168001a02000077
:020000040000fa
:04016c001a02000073
:020000040000fa
:040170001a0200006f
:020000040000fa
:040174001a0200006b
:020000040000fa
:040178001a02000067
:020000040000fa
:04017c001a02000063
:020000040000fa
:040180001a0200005f
:020000040000fa
:040184001a0200005b
:020000040000fa
:040188001a02000057
:020000040000fa
:04018c001a02000053
:020000040000fa
:040190001a0200004f
:020000040000fa
:040194001a0200004b
:020000040000fa
:040198001a02000047
:020000040000fa
:04019c001a02000043
:020000040000fa
:0401a0001a0200003f
:020000040000fa
:0401a4001a0200003b
:020000040000fa
:0401a8001a02000037
:020000040000fa
:0401ac001a02000033
:020000040000fa
:0401b0001a0200002f
:020000040000fa
:0401b4001a0200002b
:020000040000fa
:0401b8001a02000027
:020000040000fa
:0401bc001a02000023
:020000040000fa
:0401c0001a0200001f
:020000040000fa
:0401c4001a0200001b
:020000040000fa
:0401c8001a02000017
:020000040000fa
:0401cc001a02000013
:020000040000fa
:0401d0001a0200000f
:020000040000fa
:0401d4001a0200000b
:020000040000fa
:0401d8001a02000007
:020000040000fa
:100200006f8020000eff20000e018800000000001b
:10021000000020000000e000020032000001200089
:100220002002880014000700840007000000e0009e
:1002300003003a00206c200001002000020037007b
:100240000000200001002000810f7000010032003a
:1002500014000700000020000000e000020032004f
:1002600000000200000000009406020000000000f0
:100270000040da000000fe004440a9000000200019
:100280000000e0000300320000002000a001880010
:100290004440a800000006008a1f78008b1f7800e9
:1002a0000000060091018800800478000000eb0047
:1002b0001a003700e284440032a0b4009905ba0065
:1002c000e284440032a0b4009906ba00e2844400fb
:1002d00032a0b4000006eb00476fde00fd07b2005d
:1002e000636ce10003003a00ebff07000000eb0045
:1002f0000a003700606ce10004003a00005deb008a
:100300008b05e900fdff3e00040037006168e10055
:10031000010032000086eb000b00070019c7ba008d
:100320001905ba000e04e00003003a000a00e000dc
:10033000e0ff3a0000000600fe07b2009e018800c0
:100340008a047800f5ff3700395dba008b05e900b3
:100350000c003200295dba008b05e900080032006c
:100360000c00e00003003a00e284440032a0b40034
:10037000f5ff370019ddba008b05e900faff3a00f6
:100380008904e800e184440032a0b40000000600c3
:100390003600f800809fbe00829fbe00849fbe0092
:1003a000869fbe00881f78003400f80000002000ff
:1003b000a00188000000fa00004080001140800089
:1003c00072712b00138d23001e000700004088006f
:1003d00011408800004080001140800018c0b30028
:1003e0006232250053fd2300730007000000e00087
:1003f00001003d000044eb000804e000030032006f
:100400006000b80000408800114088008460a900a6
:100410000080fa003400f9004f0478004f03be005a
:100420004f02be004f01be004f00be003600f90073
:10043000004006000040da000000fe000000050059
:1004400003f0a200889fbe008a9fbe008c1f780028
:10045000b7000700be0033006450e1004f003200d7
:100460006420e1005200320003826c0007003b0070
:100470000905d0000306d000820f54000c065d0071
:10048000020039000200320089017800030678007a
:100490008582550004003d000003fd008103fd003e
:1004a0008502ea008b854200840f720002003b0047
:1004b00060001000e08018006011b8000005eb003b
:1004c0007a28e1000a00390006007800c75ddd00e7
:1004d000f707b200878075002d0037008281710018
:1004e0000a017800610560008180d1000080d3009e
:1004f0008502e900f9ff3b000604400087844800bc
:1005000002003b0060041400e0841c000988a30082
:10051000070032008a8171008281710061016400ec
:100520008904d1000884d3008b05e8001700370048
:100530000978a30013003a000b00e0001300340018
:100540008b05e9000804440089844c000a447400c7
:100550000978a3000d003a000b00e000070034000a
:100560008b05e9000804440089844c0001003a002e
:100570000b0020000978a300f7ff32000001eb0018
:1005800002003700828171000a0178002d00070007
:100590000cf0a70001f0a000760037006420e10015
:1005a00002003a00838f6c00760033000801be0021
:1005b0000200be006f003700f4ff2f00aa003700d2
:1005c0000001be00450007000470a70003f0a10071
:1005d0006509b100160032000d0035006828e10001
:1005e00006003500f0ff2f00f1ff27000300e000b8
:1005f00013003b000100280000000500000040003f
:10060000818048008502e900fcff3a0008003700bd
:10061000f88f420002003c008000eb000000050063
:100620008100d1000080d3008502e800fcff3a0081
:100630000300e00002003b0060001000e0801800b2
:100640000000060081002000618055000b003d0085
:100650000b00200061fe2f000100e1001d003400ae
:1006600082817100610164008904d1000884d30093
:100670000000e800faff3a00710020006100640009
:1006800003007000020060000900320061044400b1
:10069000e0844c000988a500050032008b05e800c5
:1006a0006808e10002003a008904d1000884d30000
:1006b000f20f20000258e10005003d00c75ddd009b
:1006c000f907b20089807500080078000000060074
:1006d0000bf827008b00780000000500c70ade0039
:1006e000f107b200f50fb20008003200e1cf42007e
:1006f000020032000170a00024000500810f70008c
:10070000010032000408050044000500810f70005c
:1007100002003a00140005008502e90000004000d4
:1007200081c04800fcff3b000170a00024000500d0
:100730000004be00e9ff07000003be000405be0080
:100740000200be00e5ff0700844f750000000600b0
:100750000200be006450e100050036006420e100a4
:10076000020036000968a30001003a000800be003c
:100770000160a0004f0678004f05be004f04be0088
:1007800000000600f0ff2f00f1ff2700f9ff3700ff
:10079000889fbe008a9fbe008c1f7800e4ff070080
:1007a000ebff330003866c006450e100240032004c
:1007b0006420e100270032006150e1002200320095
:1007c0006120e100210032008b854200eb07b1007f
:1007d0000134b800003ab8000804420089844a0095
:1007e000013ab8000030b8008880400009014a0092
:1007f00004003300000040008180480002014900ed
:100800008b05e900c909dd00830170000100320099
:1008100013002000c814de004814dd004709de0084
:100820001200b200c808de000884700085ff0700cf
:1008300001f0a1000cf0a70001f0a000cdff3700ef
:100840006120e100cfff32000801be000200be00bf
:10085000f7ff37006150e100fcff3a00c9ff3700a5
:100860000001eb001b003700889fbe008a9fbe007e
:10087000841f7800aeff07004f007800110033009e
:10088000f0ff2f00838f6c0006003b00040565001d
:100890000a00a7000800370009f0a6001000200099
:1008a00008003700820f5400838f5c00030039007a
:1008b0001000200001003e000000200009f0a70009
:1008c0000000ea004f05be004f04be000000e0003b
:1008d00000000600889fbe008a9fbe008c9fbe005d
:1008e000820578000004be007cff07000800be00ff
:1008f0006420e1000700390002003a00f1ff270000
:10090000f0ff2f000160a0001202200022408800aa
:10091000550037006120e10003003a000b00a700fa
:1009200001f823005000370001f0a100020021006f
:1009300093642400500007000800be000400350046
:10094000b2fd2000930c2400500007000004be00fc
:100950000005eb000b00a6004f0dde0001f0a1002a
:100960000004be0032982f0023ea230088ff07000e
:100970000001eb0003f023000b00a70003f82300a5
:10098000b0fe07000eff07000000a7000a00a2004b
:100990003b0007000b00e0000300320002002000d3
:1009a00003f02300a6fe070001f0a2000006be002f
:1009b000020020009304240075ff07000801be0018
:1009c000a0fe0700809fbe000c00be0022a22a00ed
:1009d000d3a723006eff07004f01be0099fe07005a
:1009e0000004be0001f0a1000200200003982300d3
:1009f000210007000800be00190035000001be00fc
:100a000063ff07000006be00b2c52900e3622300b1
:100a10005fff070022222b00f3942b0089fe0700c2
:100a20000c01be005aff0700e273280083c02300b8
:100a300084fe07000c01be0055ff070042aa2a00f1
:100a4000a3e22b007ffe07000c01be0050ff070051
:100a50000801be004eff07000801be0079fe070036
:100a60000a00a70001f0a2004f06be004f05be001d
:100a70004f04be0000000600140020007aff37007b
:100a80004f89de0082017800510037000400200009
:100a900000003700889fbe008a9fbe008c1f780030
:100aa0004f26dd0022ff070029ff33006120e1000f
:100ab000430032006250e10041003e003e00390038
:100ac0006420e1003c003200058255000f003b002d
:100ad0000402e80038003a00800f5300818f5b0069
:100ae000350034000800be0003f0a10001f0a600ac
:100af00003f0a0000cf0a70052fe07001dff370016
:100b00000603430087834b000c4646000005530054
:100b100081855b00020033000a03be000c00a000c8
:100b20000402e900f6ff3b00850578000602430059
:100b300087824b0004003a006000b80009f0a7006b
:100b400001f0a0000bff37000002520081825a0022
:100b50000704e000040033000603430087834b00d2
:100b60008b05e900faff3700090578000604be008e
:100b70000203be006011b800b2fe0700e00f520091
:100b8000e08f5a000700350002003c000c08a3006b
:100b9000040032000601be0003f0a0000cf0a70024
:100ba00028fe07000a85680001f0a1000af0a700ee
:100bb00001f0a000effe37000800be00edfe370098
:100bc000100220000cf0a60020408800edfe370047
:100bd000881f7800030478000300e00007003d0050
:100be00060001000e080180060011900e081190029
:100bf00002003b0001f02d00030037000400070055
:100c000008f0a70001f0a0004f04780000000600e3
:100c1000889fbe008a9fbe0000827000040271009f
:100c200004827100260032000004be000200be00f3
:100c30006011b8006b092000950220000182cf00ee
:100c40000a0039000541b1000082cf0007003900d9
:100c50000541b1000982cf00040039000541b1000f
:100c60000882cf00010039000541b1000542520061
:100c7000120032000a003b008281710061016400b1
:100c80008100d1000080d3008984d3000884d30080
:100c90008b05e8000442e800f7ff3a000700370040
:100ca0000804440089844c0000004800818048000a
:100cb0008b05e9000442e900f9ff3a0061fe0700f4
:0c0cc0004f05be004f04be0000000600ff
:020000040000fa
:100ccc000000fa0005e1a80021088000f0fc2f00cc
:100cdc00008060002008880004c1a9000421a9003c
:100cec000441a900800b2000100888000080fa0045
:100cfc00000006000000fa008c60a800a10480002f
:100d0c00f0ff2800808060000000260001007000c9
:100d1c00a00488000080fa00000006000600fa001b
:100d2c0010d72700c13b2400008fbe00c622ef0065
:100d3c00e3ff0700efff0700004080001140800038
:100d4c001e01be008ffe0700c2fe0700020020003d
:100d5c00f33724008bfe0700020020000338240028
:100d6c00b5fd070013fe0700200798002e00900029
:080d7c0050168800f0ff37005b
:020000040000fa
:100d84000008000004000000000000000408000047
:0c0d940002000000000000000000000051
:020000040000fa
:0200000401f009
:040000000187000074
:020000040000fa
:0200000401f009
:040004003f000000b9
:00000001FF
