:020000040000FA
:04000000BDEF12F04E
:10080000003C6C3636CF0750B98488083CABAA2A26
:10081000BEA3858832DA0FC93F83F9223F0000006A
:100820003F0000404B179ACC373F04B6BA9FAA2A24
:100830003D000000BFDB0FC940E4CB9640DB0F4911
:1008400040DB0FC93F0054C082F055C083F056C052
:1008500084F057C085F082C098F083C099F084C0BE
:100860009AF085C09BF098C058F099C059F09AC092
:100870005AF09BC05BF0200E43EF04F0D8905B323F
:100880005A3259325832E82E3EEF04F058C08EF0FA
:1008900059C08FF000019B9FDB0E985D0F0E995998
:1008A000490E9A593F0E9B59D8B059EF04F05BEFAF
:1008B00004F084EF04F0800E9A5D390E9B59D8B095
:1008C00064EF04F066EF04F070EF04F054C054F0ED
:1008D00055C055F056C056F057C057F0FFEF06F020
:1008E00054C04AF055C04BF056C04CF057C04DF0C4
:1008F000BAEC0DF04AC054F04BC055F04CC056F065
:100900004DC057F0FFEF06F0D20E985D530E995987
:100910007B0E9A59400E9B59D8B091EF04F093EF9B
:1009200004F078EF05F0E40E985DCB0E9959160EA1
:100930009A59400E9B59D8B0A0EF04F0A2EF04F0F2
:1009400011EF05F08E518F11D8B4A9EF04F0ABEF81
:1009500004F0E3EF04F0DB0E1E6E0F0E1F6EC90EE7
:10096000206E3F0E216E54C01AF055C01BF056C0C9
:100970001CF057C01DF000EC07F01AC090F01BC02F
:1009800091F01CC092F01DC093F090C02AF091C06D
:100990002BF092C02CF093C02DF0D3EC0EF02AC0B7
:1009A00046F02BC047F02CC048F02DC049F087EC32
:1009B00012F046C054F047C055F048C056F049C048
:1009C00057F0FFEF06F054C01AF055C01BF056C0A8
:1009D0001CF057C01DF0DB0E1E6E0F0E1F6EC90EF1
:1009E000206EBF0E216E00EC07F01AC090F01BC005
:1009F00091F01CC092F01DC093F090C02AF091C0FD
:100A00002BF092C02CF093C02DF0D3EC0EF02AC046
:100A100054F02BC055F02CC056F02DC057F0FFEF0E
:100A200006F08E518F11D8A418EF05F01AEF05F0DB
:100A300040EF05F0DB0E1E6E0F0E1F6E490E206E8E
:100A4000C00E216E54C01AF055C01BF056C01CF0E9
:100A500057C01DF000EC07F01AC046F01BC047F06D
:100A60001CC048F01DC049F087EC12F046C086F06B
:100A700047C087F048C088F049C089F064EF05F0AE
:100A8000DB0E1E6E0F0E1F6E490E206E400E216E85
:100A900054C01AF055C01BF056C01CF057C01DF0D2
:100AA00000EC07F01AC046F01BC047F01CC048F02D
:100AB0001DC049F087EC12F046C086F047C087F0B1
:100AC00048C088F049C089F086C04AF087C04BF022
:100AD00088C04CF089C04DF0BAEC0DF04AC054F01B
:100AE0004BC055F04CC056F04DC057F0FFEF06F02C
:100AF000D60E985D310E9959E20E9A59400E9B59C7
:100B0000D8B085EF05F087EF05F02AEF06F0E00E8C
:100B1000985DED0E9959AF0E9A59400E9B59D8B079
:100B200094EF05F096EF05F0D7EF05F08E518F1199
:100B3000D8B49DEF05F09FEF05F0BBEF05F054C072
:100B40001AF055C01BF056C01CF057C01DF0E40E43
:100B50001E6ECB0E1F6E960E206E400E216E00ECA8
:100B600007F01AC090F01BC091F01CC092F01DC09D
:100B700093F0FDEF04F0E40E1E6ECB0E1F6E960E8A
:100B8000206EC00E216E54C01AF055C01BF056C026
:100B90001CF057C01DF000EC07F01AC090F01BC00D
:100BA00091F01CC092F01DC093F0C5EF04F08E517F
:100BB0008F11D8A4DEEF05F0E0EF05F0FCEF05F0B3
:100BC00054C01AF055C01BF056C01CF057C01DF0A1
:100BD000DB0E1E6E0F0E1F6EC90E206EC00E216E34
:100BE00000EC07F01AC08AF01BC08BF01CC08CF020
:100BF0001DC08DF016EF06F054C01AF055C01BF062
:100C000056C01CF057C01DF0DB0E1E6E0F0E1F6E7F
:100C1000C90E206E400E216E00EC07F01AC08AF05B
:100C20001BC08BF01CC08CF01DC08DF08AC04AF038
:100C30008BC04BF08CC04CF08DC04DF0BAEC0DF079
:100C40004AC054F04BC055F04CC056F04DC057F060
:100C5000FFEF06F0800E9A5D7F0E9B59D8A033EF10
:100C600006F035EF06F051EF06F054C02AF055C0FB
:100C70002BF056C02CF057C02DF054C02EF055C0AC
:100C80002FF056C030F057C031F064EC12F02AC09B
:100C900054F02BC055F02CC056F02DC057F0FFEF8C
:100CA00006F054C04AF055C04BF056C04CF057C047
:100CB0004DF0940E4E6E000E4F6E60EC09F04AC07F
:100CC0007EF04BC07FF00001000E7FBFFF0E806FF3
:100CD000816FCFEF06F094C04AF095C04BF096C0FC
:100CE0004CF097C04DF0BAEC0DF04AC054F04BC038
:100CF00055F04CC056F04DC057F0FFEF06F094C0D1
:100D00002AF095C02BF096C02CF097C02DF0D3ECB4
:100D10000EF02AC054F02BC055F02CC056F02DC058
:100D200057F0FFEF06F094C046F095C047F096C02C
:100D300048F097C049F087EC12F046C04AF047C02F
:100D40004BF048C04CF049C04DF0BAEC0DF04AC031
:100D500054F04BC055F04CC056F04DC057F0FFEF6B
:100D600006F094C02AF095C02BF096C02CF097C0E6
:100D70002DF0D3EC0EF02AC046F02BC047F02CC06B
:100D800048F02DC049F087EC12F046C054F047C03F
:100D900055F048C056F049C057F0FFEF06F0030E7B
:100DA0007E15586E000E7F15596E000E80155A6E16
:100DB000000E81155B6E5B50000AD8B4F8EF06F0A8
:100DC000B1EF06F05950000AD8B4E9EF06F0B1EFE0
:100DD00006F05850000AD8B46BEF06F0010AD8B4F8
:100DE0007FEF06F0030AD8B493EF06F0B1EF06F0F8
:100DF0005A50000AD8B4E2EF06F0B1EF06F0120044
:100E00001D50800B266E1D501D24286E1CAE0BEF4E
:100E100007F00DEF07F00EEF07F028802850D8B448
:100E200014EF07F016EF07F02BEF07F02828D8A4EF
:100E30001CEF07F01EEF07F026EF07F0000E1A6E0A
:100E4000000E1B6E000E1C6E000E1D6E1C8E000E22
:100E50001D6E33EF07F0000E1A6E000E1B6E000EB3
:100E60001C6E000E1D6E2150800B276E2650271819
:100E7000D8B43DEF07F03FEF07F040EF07F0268CC6
:100E800021502124276E20AE48EF07F04AEF07F0EB
:100E90004BEF07F027802750D8B451EF07F053EFFE
:100EA00007F068EF07F02728D8A459EF07F05BEFA9
:100EB00007F063EF07F0000E1E6E000E1F6E000EAF
:100EC000206E000E216E208E000E216E70EF07F056
:100ED000000E1E6E000E1F6E000E206E000E216EA4
:100EE0002850275CD8B077EF07F079EF07F0A0EF34
:100EF00007F026AC7EEF07F080EF07F082EF07F0F7
:100F0000800E261A28C029F027C028F029C027F013
:100F10001AC029F01EC01AF029C01EF01BC029F00B
:100F20001FC01BF029C01FF01CC029F020C01CF0FE
:100F300029C020F01DC029F021C01DF029C021F0DA
:100F4000000E296E285027C022F0236A225E000E70
:100F5000235A23BEB5EF07F0235009E11A0E225C95
:100F6000D8A0B5EF07F0B7EF07F0EEEF07F01A5093
:100F70001B101C101D10D8A4C0EF07F0C3EF07F022
:100F8000010EC4EF07F0000E296E000E1A6E000E5F
:100F90001B6E000E1C6E000E1D6E27C028F0F7EFB2
:100FA00007F029A0D6EF07F0D8EF07F0DEEF07F043
:100FB000D89029300109296EE0EF07F0D890293246
:100FC0001AA0E5EF07F0E7EF07F0E8EF07F0298E4A
:100FD0001D341D321C321B321A32282A2750285C3D
:100FE000D8A0F5EF07F0F7EF07F0D1EF07F026BC38
:100FF000FCEF07F0FEEF07F03EEF08F02850D8A412
:1010000004EF08F006EF08F010EF08F0000E1A6E7B
:10101000000E1B6E000E1C6E000E1D6E5FEF09F0C1
:101020001E501A261F501B2220501C2221501D2208
:101030001DA01DEF08F01FEF08F0CBEF08F029A06E
:1010400024EF08F026EF08F02CEF08F0D8902930B4
:101050000109296E2EEF08F0D89029321AA033EF3B
:1010600008F035EF08F036EF08F0298E1D341D32F8
:101070001C321B321A32282ACBEF08F01E501A5CA1
:101080001F501B5820501C581D50800A226E2150A2
:10109000800A2258D8B04FEF08F051EF08F07CEFEB
:1010A00008F01A501E5C226E1B501F58236E1C50F5
:1010B0002058246E1D502158256EFF0E22241A6ED2
:1010C000FF0E23201B6EFF0E24201C6EFF0E25201A
:1010D0001D6E800E261A296C2950D8A472EF08F0D4
:1010E00074EF08F084EF08F0010E1A26000E1B22A0
:1010F0001C221D2284EF08F01E501A5E1F501B5A3E
:1011000020501C5A21501D5A1A501B101C101D1023
:10111000D8A48DEF08F08FEF08F0C4EF08F0295045
:10112000D8A495EF08F097EF08F0C4EF08F0000E90
:101130001A6E000E1B6E000E1C6E000E1D6E5FEF11
:1011400009F0D8901A361B361C361D3629AEABEF87
:1011500008F0ADEF08F0AEEF08F01A8029A0B3EF69
:1011600008F0B5EF08F0B9EF08F0D8802936BBEFEA
:1011700008F0D89029362850D8B4C1EF08F0C3EF52
:1011800008F0C4EF08F028061CAEC9EF08F0CBEF5A
:1011900008F0A1EF08F0000E276E29AED2EF08F09C
:1011A000D4EF08F0ECEF08F029C022F07F0E2216F1
:1011B000D8B4DDEF08F0DFEF08F0E3EF08F0010E40
:1011C000276EECEF08F01AA0E8EF08F0EAEF08F05D
:1011D000ECEF08F0DFEF08F02750D8B4F2EF08F09A
:1011E000F4EF08F01FEF09F0010E1A26000E1B2283
:1011F0001C221D221DA0FFEF08F001EF09F01FEFD8
:1012000009F01AC022F01BC023F01CC024F01DC03E
:1012100025F02534253224322332223222C01AF01E
:1012200023C01BF024C01CF025C01DF02828D8B412
:101230001CEF09F01EEF09F01FEF09F0282A2828FB
:10124000D8B425EF09F027EF09F02FEF09F0285067
:10125000D8A42DEF09F02FEF09F041EF09F0000EAF
:101260001A6E000E1B6E000E1C6E000E1D6E2850B6
:10127000D8A43DEF09F03FEF09F041EF09F0000E6F
:10128000266E28A046EF09F048EF09F04BEF09F071
:101290001C8E4CEF09F01C9ED89028301D6E26AE97
:1012A00054EF09F056EF09F057EF09F01D8E1AC000
:1012B0001AF01BC01BF01CC01CF01DC01DF012005A
:1012C000AEC06AF0AFC06BF0B0C06CF0B1C06DF0F2
:1012D0004AC06AF04BC06BF04CC06CF04DC06DF072
:1012E0006AC050F06BC051F06CC052F06DC053F04A
:1012F000200E80EF09F0D8905332523251325032E2
:10130000E82E7BEF09F050C068F051C069F0FF0E85
:1013100000016A15646FFF0E6B15656FFF0E6C158B
:10132000666F7F0E6D15676F800E665D7F0E675965
:10133000D8A09DEF09F09FEF09F0C3EF09F04AC074
:101340002AF04BC02BF04CC02CF04DC02DF04AC001
:101350002EF04BC02FF04CC030F04DC031F064EC9B
:1013600012F04EC0D9FF4FC0DAFF2AC0DEFF2BC0FB
:10137000DEFF2CC0DEFF2DC0DEFF000E4B6E000E28
:101380004A6EA4EF0BF0DB0E645D0F0E6559C90EBB
:1013900066594D0E6759D8B0D0EF09F0D2EF09F079
:1013A000C1EF0AF04AC001F04BC002F04CC003F09C
:1013B0004DC004F0A3EC12F001C076F002C077F04B
:1013C00003C078F004C079F0000E1E6E000E1F6E90
:1013D000000E206E3F0E216E830E056EF90E066E16
:1013E000220E076E3F0E086E76C001F077C002F045
:1013F00078C003F079C004F0A5EC0BF001C01AF03E
:1014000002C01BF003C01CF004C01DF000EC07F08C
:101410001AC02AF01BC02BF01CC02CF01DC02DF0F0
:101420005FEC11F02AC07AF02BC07BF02CC07CF06E
:101430002DC07DF07AC001F07BC002F07CC003F0CB
:101440007DC004F0010ED2EC0FF001C072F002C0BA
:1014500073F003C074F004C075F0DA0E056E0F0E61
:10146000066EC90E076E3F0E086E72C001F073C0A3
:1014700002F074C003F075C004F0A5EC0BF001C0DD
:101480002EF002C02FF003C030F004C031F076C05F
:101490002AF077C02BF078C02CF079C02DF064ECE6
:1014A00012F02AC06EF02BC06FF02CC070F02DC06F
:1014B00071F06EC02AF06FC02BF070C02CF071C0BC
:1014C0002DF0A30E056E850E066E880E076E320E89
:1014D000086E72C001F073C002F074C003F075C0F2
:1014E00004F0A5EC0BF001C02EF002C02FF003C0F9
:1014F00030F004C031F064EC12F04EC0D9FF4FC0A0
:10150000DAFF2AC0DEFF2BC0DEFF2CC0DEFF2DC0BD
:10151000DEFF000168516911D8B491EF0AF093EF32
:101520000AF0BBEF0AF04EC0D9FF4FC0DAFFDECFA2
:1015300046F0DECF47F0DECF48F0DECF49F087EC53
:1015400012F04EC0D9FF4FC0DAFF46C0DEFF47C0E1
:10155000DEFF48C0DEFF49C0DEFF7AC050F07BC02E
:1015600051F0501E511E504A512A50C04AF051C0ED
:101570004BF0A4EF0BF07AC04AF07BC04BF0A4EF25
:101580000BF04AC001F04BC002F04CC003F04DC05C
:1015900004F0A3EC12F001C076F002C077F003C0B3
:1015A00078F004C079F0000E1E6E000E1F6E000E63
:1015B000206E3F0E216E830E056EF90E066E220E12
:1015C000076E3F0E086E76C001F077C002F078C05B
:1015D00003F079C004F0A5EC0BF001C01AF002C0D2
:1015E0001BF003C01CF004C01DF000EC07F01AC093
:1015F0002AF01BC02BF01CC02CF01DC02DF05FEC9E
:1016000011F02AC07AF02BC07BF02CC07CF02DC0EA
:101610007DF07AC001F07BC002F07CC003F07DC099
:1016200004F0010ED2EC0FF001C072F002C073F0B2
:1016300003C074F004C075F0DA0E056E0F0E066E6E
:10164000C90E076E3F0E086E72C001F073C002F043
:1016500074C003F075C004F0A5EC0BF001C02EF0CF
:1016600002C02FF003C030F004C031F076C02AF081
:1016700077C02BF078C02CF079C02DF064EC12F01C
:101680002AC06EF02BC06FF02CC070F02DC071F02E
:101690006EC02AF06FC02BF070C02CF071C02DF01E
:1016A000A30E056E850E066E880E076E320E086E4E
:1016B00072C001F073C002F074C003F075C004F092
:1016C000A5EC0BF001C02EF002C02FF003C030F0EB
:1016D00004C031F064EC12F02AC060F02BC061F05D
:1016E0002CC062F02DC063F0000168516911D8B4BC
:1016F0007CEF0BF07EEF0BF096EF0BF060C046F046
:1017000061C047F062C048F063C049F087EC12F056
:101710004EC0D9FF4FC0DAFF46C0DEFF47C0DEFF34
:1017200048C0DEFF49C0DEFFADEF0AF04EC0D9FF72
:101730004FC0DAFF60C0DEFF61C0DEFF62C0DEFFC7
:1017400063C0DEFFBBEF0AF012000450800B0D6E89
:1017500004500424136E03AEB0EF0BF0B2EF0BF0A5
:10176000B3EF0BF013801350D8B4B9EF0BF0BBEF0D
:101770000BF0CEEF0BF01328D8A4C1EF0BF0C3EFA2
:101780000BF0CBEF0BF0000E016E000E026E000EA0
:10179000036E000E046E038ED6EF0BF0000E016E8A
:1017A000000E026E000E036E000E046E0850800BD9
:1017B0000D1A08500824126E07AEE1EF0BF0E3EFAC
:1017C0000BF0E4EF0BF012801250D8B4EAEF0BF0FC
:1017D000ECEF0BF0FFEF0BF01228D8A4F2EF0BF0B8
:1017E000F4EF0BF0FCEF0BF0000E056E000E066E32
:1017F000000E076E000E086E078E07EF0CF0000E4D
:10180000056E000E066E000E076E000E086E12507A
:10181000D8B40DEF0CF00FEF0CF017EF0CF01350E5
:10182000D8A415EF0CF017EF0CF021EF0CF0000E20
:10183000016E000E026E000E036E000E046EB9EF14
:101840000DF007500102F3CF18F0F4CF19F0185043
:101850000E6E0F6A106A116A1950146E156A166AB4
:10186000176A06500202F3CF18F0F4CF19F018509F
:101870000E26000E0F221022112219501426000EDF
:1018800015221622172205500302F3CF18F0F4CFC9
:1018900019F018500E26000E0F2210221122195096
:1018A0001426000E15221622172210C011F00FC0A8
:1018B00010F00EC00FF00E6A05500202F3CF18F0C0
:1018C000F4CF19F018500E2619500F22000E1022D6
:1018D000000E112206500102F3CF18F0F4CF19F0D8
:1018E00018500E2619500F22000E1022000E112241
:1018F00010C011F00FC010F00EC00FF00E6A0550AE
:101900000102F3CF18F0F4CF19F018500E26195039
:101910000F22000E1022000E112207500202F3CFF8
:1019200018F0F4CF19F01850142619501522000E93
:101930001622000E172206500302F3CF18F0F4CF40
:1019400019F01850142619501522000E1622000EF8
:10195000172207500302F3CF18F0F4CF19F01850F4
:10196000096E19500A6E0B6A0C6A0BC00CF00AC0A3
:101970000BF009C00AF0096A095014260A50152212
:101980000B5016220C5017220EC009F00FC00AF09F
:1019900010C00BF011C00CF0190ED4EF0CF0D89061
:1019A0000C320B320A320932E82ECFEF0CF009501C
:1019B00014260A5015220B5016220C50172210C064
:1019C00011F00FC010F00EC00FF00E6A125013C0CD
:1019D00009F00A6A0926000E0A22820E0924186EEE
:1019E000FF0E0A20196E0AEF0DF0D8901436153646
:1019F0001636173611AEFFEF0CF001EF0DF002EFC7
:101A00000DF01480D8900E360F36103611361806A9
:101A1000D8A0190616AE0FEF0DF011EF0DF0F5EF8F
:101A20000CF0000E126E11AE18EF0DF01AEF0DF063
:101A30003EEF0DF0FF0E0E14096EFF0E0F140A6E2E
:101A4000FF0E10140B6E7F0E11140C6E09500A104D
:101A50000B100C10D8B42FEF0DF031EF0DF035EF67
:101A60000DF0010E126E3EEF0DF014A03AEF0DF0E6
:101A70003CEF0DF03EEF0DF031EF0DF01250D8B409
:101A800044EF0DF046EF0DF06AEF0DF0010E142655
:101A9000000E15221622172217A051EF0DF053EF5A
:101AA0000DF06AEF0DF014C009F015C00AF016C071
:101AB0000BF017C00CF00C340C320B320A32093226
:101AC00009C014F00AC015F00BC016F00CC017F0D6
:101AD000184A192A19BE75EF0DF0195008E1182897
:101AE000D8A075EF0DF077EF0DF081EF0DF0000E3F
:101AF000146E000E156E800E166E7F0E176EAFEF11
:101B00000DF019BE8EEF0DF0195006E11804D8B093
:101B10008CEF0DF08EEF0DF09AEF0DF0000E146EBD
:101B2000000E156E000E166E000E176E000E0D6E76
:101B3000AFEF0DF018C013F0FF0E1416FF0E1516C0
:101B40007F0E1616000E171613A0A9EF0DF0ABEFBF
:101B50000DF0ACEF0DF0168ED8901330176E0D50BF
:101B6000171214C001F015C002F016C003F017C020
:101B700004F012004AC001F04BC002F04CC003F068
:101B80004DC004F04AC005F04BC006F04CC007F051
:101B90004DC008F0A5EC0BF001C078F002C079F060
:101BA00003C07AF004C07BF078C001F079C002F085
:101BB0007AC003F07BC004F078C005F079C006F06D
:101BC0007AC007F07BC008F0A5EC0BF001C064F010
:101BD00002C065F003C066F004C067F03C0E056EFD
:101BE0006C0E066E360E076E360E086E78C001F06B
:101BF00079C002F07AC003F07BC004F0A5EC0BF0D2
:101C000001C01AF002C01BF003C01CF004C01DF09C
:101C1000CF0E1E6E070E1F6E500E206EB90E216E77
:101C200000EC07F01AC060F01BC061F01CC062F04D
:101C30001DC063F078C001F079C002F07AC003F0F3
:101C40007BC004F04AC005F04BC006F04CC007F062
:101C50004DC008F0A5EC0BF001C074F002C075F0A7
:101C600003C076F004C077F0AB0E1E6EAA0E1F6E96
:101C70002A0E206EBE0E216E840E056E880E066E34
:101C8000080E076E3C0E086E78C001F079C002F0B5
:101C90007AC003F07BC004F0A5EC0BF001C01AF091
:101CA00002C01BF003C01CF004C01DF000EC07F0E4
:101CB0001AC068F01BC069F01CC06AF01DC06BF050
:101CC00064C005F065C006F066C007F067C008F0A4
:101CD00074C001F075C002F076C003F077C004F064
:101CE000A5EC0BF001C06CF002C06DF003C06EF00B
:101CF00004C06FF04AC01EF04BC01FF04CC020F073
:101D00004DC021F074C005F075C006F076C007F034
:101D100077C008F068C001F069C002F06AC003F043
:101D20006BC004F0A5EC0BF001C01AF002C01BF070
:101D300003C01CF004C01DF000EC07F01AC070F0E6
:101D40001BC071F01CC072F01DC073F070C01AF09F
:101D500071C01BF072C01CF073C01DF060C005F0B4
:101D600061C006F062C007F063C008F06CC001F00B
:101D70006DC002F06EC003F06FC004F0A5EC0BF074
:101D800001C01EF002C01FF003C020F004C021F00B
:101D900000EC07F01AC04AF01BC04BF01CC04CF01E
:101DA0001DC04DF012002AC001F02BC002F02CC063
:101DB00003F02DC004F02AC005F02BC006F02CC0A3
:101DC00007F02DC008F0A5EC0BF001C042F002C0F6
:101DD00043F003C044F004C045F042C001F043C0EA
:101DE00002F044C003F045C004F042C005F043C017
:101DF00006F044C007F045C008F0A5EC0BF001C0A8
:101E00003EF002C03FF003C040F004C041F0170EA6
:101E1000056E9A0E066ECC0E076E370E086E42C027
:101E200001F043C002F044C003F045C004F0A5EC4B
:101E30000BF001C01AF002C01BF003C01CF004C07C
:101E40001DF03F0E1E6E040E1F6EB60E206EBA0EF3
:101E5000216E00EC07F01AC02EF01BC02FF01CC042
:101E600030F01DC031F0000E1E6E000E1F6E800E91
:101E7000206E3F0E216E000E056E000E066E000EE7
:101E8000076EBF0E086E42C001F043C002F044C0AE
:101E900003F045C004F0A5EC0BF001C01AF002C03D
:101EA0001BF003C01CF004C01DF000EC07F01AC0CA
:101EB00032F01BC033F01CC034F01DC035F042C0FE
:101EC00005F043C006F044C007F045C008F03EC02E
:101ED00001F03FC002F040C003F041C004F0A5ECA7
:101EE0000BF001C036F002C037F003C038F004C078
:101EF00039F09F0E056EAA0E066E2A0E076E3D0E75
:101F0000086E3EC001F03FC002F040C003F041C087
:101F100004F0A5EC0BF001C01EF002C01FF003C0DE
:101F200020F004C021F032C01AF033C01BF034C0DE
:101F30001CF035C01DF000EC07F01AC03AF01BC0D1
:101F40003BF01CC03CF01DC03DF03AC01AF03BC055
:101F50001BF03CC01CF03DC01DF02EC005F02FC092
:101F600006F030C007F031C008F036C001F037C0CD
:101F700002F038C003F039C004F0A5EC0BF001C04A
:101F80001EF002C01FF003C020F004C021F000ECDE
:101F900007F01AC02AF01BC02BF01CC02CF01DC08B
:101FA0002DF01200096E0950D8B4D9EF0FF0DBEF15
:101FB0000FF0FDEF0FF004BEE2EF0FF0E0EF0FF0D7
:101FC000FDEF0FF001C005F002C006F003C007F0FE
:101FD00004C008F0051E061E071E081E052A000E76
:101FE00006220722082205C00BF006C00CF007C02D
:101FF0000DF008C00EF005EF10F001C00BF002C0AC
:102000000CF003C00DF004C00EF0015002100310DC
:102010000410D8A40EEF10F010EF10F01AEF10F02B
:10202000000E016E000E026E000E036E000E046EB6
:10203000ABEF10F0960E0A6E24EF10F00A2AD8903B
:102040000E320D320C320B32000E0B14056E000EE8
:102050000C14066E000E0D14076EFE0E0E14086EA4
:102060000550061007100810D8A439EF10F03BEF08
:1020700010F01EEF10F049EF10F00A2A010E0B26A7
:10208000000E0C220D220E22D8900E320D320C3290
:102090000B32000E0B14056E000E0C14066E000EB3
:1020A0000D14076EFF0E0E14086E05500610071073
:1020B0000810D8A45EEF10F060EF10F03DEF10F0C4
:1020C00068EF10F00A06D8900B360C360D360E3637
:1020D0000DBE6DEF10F06FEF10F077EF10F0020E05
:1020E0000A6075EF10F077EF10F062EF10F00AB0B1
:1020F0007CEF10F07EEF10F07FEF10F00D9ED89087
:102100000A320AC005F0066A076A086A05C008F0C4
:10211000076A066A056A05500B1206500C12075032
:102120000D1208500E120950D8B499EF10F09BEF21
:1021300010F0A3EF10F004BEA2EF10F0A0EF10F02B
:10214000A3EF10F00E8E0BC001F00CC002F00DC01A
:1021500003F00EC004F01200710E00019C6F7D0EA2
:102160009D6FBC0E9E6F430E9F6F000E936EB2C0AC
:102170001AF0B3C01BF0B4C01CF0B5C01DF06F0E58
:102180001E6E120E1F6E830E206E3A0E216E00EC34
:1021900007F01AC0B2F01BC0B3F01CC0B4F01DC0F1
:1021A000B5F0B2C001F0B3C002F0B4C003F0B5C0E6
:1021B00004F0000E056E400E066ED00E076E440E43
:1021C000086EE2EC11F0D8A0E8EF10F0EAEF10F0A2
:1021D000F3EF10F0000E0001B26F000EB36F000EAF
:1021E000B46F000EB56FB2C005F0B3C006F0B4C056
:1021F00007F0B5C008F09CC001F09DC002F09EC081
:1022000003F09FC004F0A5EC0BF001C0A0F002C0E9
:10221000A1F003C0A2F004C0A3F0A0C054F0A1C07C
:1022200055F0A2C056F0A3C057F023EC04F054C000
:10223000A4F055C0A5F056C0A6F057C0A7F0000EF8
:102240001E6E000E1F6E000E206E430E216E000EDD
:10225000056E000E066EFE0E076E420E086EA4C0DE
:1022600001F0A5C002F0A6C003F0A7C004F0A5ECE1
:102270000BF001C01AF002C01BF003C01CF004C038
:102280001DF000EC07F01AC02AF01BC02BF01CC098
:102290002CF01DC02DF05FEC11F02AC0A8F02BC06F
:1022A000A9F0A8C08AFF070E5C6E7D0EE82EFED74F
:1022B0005C2EFCD700F0B7EF10F000EF00F02C34EC
:1022C0002D34336E3350D8A468EF11F06AEF11F05B
:1022D00074EF11F0000E2A6E000E2B6E000E2C6EA5
:1022E000000E2D6EE1EF11F02AC02EF02BC02FF062
:1022F0002CC030F02DC031F0200E84EF11F0D890BA
:10230000313230322F322E32E82E7FEF11F02E5044
:10231000326E2C8EFF0E2A16FF0E2B16FF0E2C1679
:10232000000E2D16960E335E33BE9BEF11F099EF23
:1023300011F0B1EF11F03350800A970FD8B0A3EF2E
:1023400011F0A5EF11F0A7EF11F06AEF11F0D8909E
:102350002D322C322B322A32333EA7EF11F0C9EF47
:1023600011F01F0E3364B7EF11F0B9EF11F0C1EFA8
:1023700011F06AEF11F0D8902A362B362C362D3614
:1023800033063350D8A4C7EF11F0C9EF11F0BBEFFB
:1023900011F03250D8B4CFEF11F0D1EF11F0D9EFE6
:1023A00011F02D1E2C1E2B1E2A6C000E2B222C220F
:1023B0002D222AC02AF02BC02BF02CC02CF02DC0CF
:1023C0002DF01200000E0114096E000E02140A6EA8
:1023D000800E03140B6E7F0E04140C6E09500A104D
:1023E0000B100C10D8A4F7EF11F0F9EF11F001EF7A
:1023F00012F0000E016E000E026E000E036E000E53
:10240000046E000E0514096E000E06140A6E800E8E
:1024100007140B6E7F0E08140C6E09500A100B1077
:102420000C10D8A416EF12F018EF12F020EF12F0F3
:10243000000E056E000E066E000E076E000E086E92
:1024400004AE25EF12F027EF12F030EF12F0016C1E
:10245000021ED8B0022A031ED8B0032A800E0456EA
:1024600008AE35EF12F037EF12F040EF12F0056CC6
:10247000061ED8B0062A071ED8B0072A800E0856B6
:10248000000E011A000E021A000E031A800E041A22
:10249000000E051A000E061A000E071A800E081A02
:1024A0000550015C06500258075003580850045864
:1024B000D8B05DEF12F05FEF12F062EF12F0D8903B
:1024C00063EF12F0D8801200000E2E1A000E2F1AA1
:1024D000000E301A800E311A2AC01AF02BC01BF0E1
:1024E0002CC01CF02DC01DF02EC01EF02FC01FF000
:1024F00030C020F031C021F000EC07F01AC02AF003
:102500001BC02BF01CC02CF01DC02DF0120046503B
:10251000471048104910D8B490EF12F092EF12F023
:102520009AEF12F0000E461A000E471A000E481AD3
:10253000800E491A46C046F047C047F048C048F0F0
:1025400049C049F01200AAC005F0ABC006F0ACC00B
:1025500007F0ADC008F001C005F002C006F003C0EE
:1025600007F004C008F0089E05C001F006C002F0A4
:1025700007C003F008C004F0120000EEAAF0080E35
:10258000EE6AE806FDE1000EF86E0001ACEF10F017
:020000040020DA
:08000000FFFFFFFFFFFFFFFF00
:020000040030CA
:0E000000000C1F1EFF8385FF0FC00FE00F4096
:00000001FF
